:020000040000fa
:080000000002040000000000f2
:020000040000fa
:04000800fa020000f8
:020000040000fa
:04000c003c030000b1
:020000040000fa
:040010007c0300006d
:020000040000fa
:040014001a030000cb
:020000040000fa
:040018005c03000085
:020000040000fa
:04001c005a05000081
:020000040000fa
:040020009c0300003d
:020000040000fa
:040024005a05000079
:020000040000fa
:040028005a05000075
:020000040000fa
:04002c005a05000071
:020000040000fa
:040030005a0500006d
:020000040000fa
:040034005a05000069
:020000040000fa
:040038005a05000065
:020000040000fa
:04003c005a05000061
:020000040000fa
:040040005a0500005d
:020000040000fa
:040044005a05000059
:020000040000fa
:040048005a05000055
:020000040000fa
:04004c005a05000051
:020000040000fa
:040050005a0500004d
:020000040000fa
:040054005a05000049
:020000040000fa
:040058005a05000045
:020000040000fa
:04005c005a05000041
:020000040000fa
:040060005a0500003d
:020000040000fa
:040064005a05000039
:020000040000fa
:040068005a05000035
:020000040000fa
:04006c005a05000031
:020000040000fa
:040070005a0500002d
:020000040000fa
:040074005a05000029
:020000040000fa
:040078005a05000025
:020000040000fa
:04007c005a05000021
:020000040000fa
:040080005a0500001d
:020000040000fa
:040084005a05000019
:020000040000fa
:040088005a05000015
:020000040000fa
:04008c005a05000011
:020000040000fa
:040090005a0500000d
:020000040000fa
:040094005a05000009
:020000040000fa
:040098005a05000005
:020000040000fa
:04009c005a05000001
:020000040000fa
:0400a0005a050000fd
:020000040000fa
:0400a4005a050000f9
:020000040000fa
:0400a8005a050000f5
:020000040000fa
:0400ac005a050000f1
:020000040000fa
:0400b0005a050000ed
:020000040000fa
:0400b4005a050000e9
:020000040000fa
:0400b8005a050000e5
:020000040000fa
:0400bc00f603000047
:020000040000fa
:0400c0005a050000dd
:020000040000fa
:0400c4005a050000d9
:020000040000fa
:0400c8005a050000d5
:020000040000fa
:0400cc005a050000d1
:020000040000fa
:0400d0005a050000cd
:020000040000fa
:0400d4005a050000c9
:020000040000fa
:0400d8005a050000c5
:020000040000fa
:0400dc005a050000c1
:020000040000fa
:0400e0005a050000bd
:020000040000fa
:0400e4005a050000b9
:020000040000fa
:0400e8005a050000b5
:020000040000fa
:0400ec005a050000b1
:020000040000fa
:0400f0005a050000ad
:020000040000fa
:0400f4005a050000a9
:020000040000fa
:0400f8005a050000a5
:020000040000fa
:0400fc005a050000a1
:020000040000fa
:040100005a0500009c
:020000040000fa
:040104005a05000098
:020000040000fa
:040108005a05000094
:020000040000fa
:04010c005a05000090
:020000040000fa
:040110005a0500008c
:020000040000fa
:040114005a05000088
:020000040000fa
:040118005a05000084
:020000040000fa
:04011c005a05000080
:020000040000fa
:040120005a0500007c
:020000040000fa
:040124005a05000078
:020000040000fa
:040128005a05000074
:020000040000fa
:04012c005a05000070
:020000040000fa
:040130005a0500006c
:020000040000fa
:040134005a05000068
:020000040000fa
:040138005a05000064
:020000040000fa
:04013c005a05000060
:020000040000fa
:040140005a0500005c
:020000040000fa
:040144005a05000058
:020000040000fa
:040148005a05000054
:020000040000fa
:04014c005a05000050
:020000040000fa
:040150005a0500004c
:020000040000fa
:040154005a05000048
:020000040000fa
:040158005a05000044
:020000040000fa
:04015c005a05000040
:020000040000fa
:040160005a0500003c
:020000040000fa
:040164005a05000038
:020000040000fa
:040168005a05000034
:020000040000fa
:04016c005a05000030
:020000040000fa
:040170005a0500002c
:020000040000fa
:040174005a05000028
:020000040000fa
:040178005a05000024
:020000040000fa
:04017c005a05000020
:020000040000fa
:040180005a0500001c
:020000040000fa
:040184005a05000018
:020000040000fa
:040188005a05000014
:020000040000fa
:04018c005a05000010
:020000040000fa
:040190005a0500000c
:020000040000fa
:040194005a05000008
:020000040000fa
:040198005a05000004
:020000040000fa
:04019c005a05000000
:020000040000fa
:0401a0005a050000fc
:020000040000fa
:0401a4005a050000f8
:020000040000fa
:0401a8005a050000f4
:020000040000fa
:0401ac005a050000f0
:020000040000fa
:0401b0005a050000ec
:020000040000fa
:0401b4005a050000e8
:020000040000fa
:0401b8005a050000e4
:020000040000fa
:0401bc005a050000e0
:020000040000fa
:0401c0005a050000dc
:020000040000fa
:0401c4005a050000d8
:020000040000fa
:0401c8005a050000d4
:020000040000fa
:0401cc005a050000d0
:020000040000fa
:0401d0005a050000cc
:020000040000fa
:0401d4005a050000c8
:020000040000fa
:0401d8005a050000c4
:020000040000fa
:0401dc005a050000c0
:020000040000fa
:0401e0005a050000bc
:020000040000fa
:0401e4005a050000b8
:020000040000fa
:0401e8005a050000b4
:020000040000fa
:0401ec005a050000b0
:020000040000fa
:0401f0005a050000ac
:020000040000fa
:0401f4005a050000a8
:020000040000fa
:0401f8005a050000a4
:020000040000fa
:0401fc005a050000a0
:020000040000fa
:040200005a0500009b
:020000040000fa
:040204005a05000097
:020000040000fa
:040208005a05000093
:020000040000fa
:04020c005a0500008f
:020000040000fa
:040210005a0500008b
:020000040000fa
:040214005a05000087
:020000040000fa
:040218005a05000083
:020000040000fa
:04021c005a0500007f
:020000040000fa
:040220005a0500007b
:020000040000fa
:040224005a05000077
:020000040000fa
:040228005a05000073
:020000040000fa
:04022c005a0500006f
:020000040000fa
:040230005a0500006b
:020000040000fa
:040234005a05000067
:020000040000fa
:040238005a05000063
:020000040000fa
:04023c005a0500005f
:020000040000fa
:040240005a0500005b
:020000040000fa
:040244005a05000057
:020000040000fa
:040248005a05000053
:020000040000fa
:04024c005a0500004f
:020000040000fa
:040250005a0500004b
:020000040000fa
:040254005a05000047
:020000040000fa
:040258005a05000043
:020000040000fa
:04025c005a0500003f
:020000040000fa
:040260005a0500003b
:020000040000fa
:040264005a05000037
:020000040000fa
:040268005a05000033
:020000040000fa
:04026c005a0500002f
:020000040000fa
:040270005a0500002b
:020000040000fa
:040274005a05000027
:020000040000fa
:040278005a05000023
:020000040000fa
:04027c005a0500001f
:020000040000fa
:040280005a0500001b
:020000040000fa
:040284005a05000017
:020000040000fa
:040288005a05000013
:020000040000fa
:04028c005a0500000f
:020000040000fa
:040290005a0500000b
:020000040000fa
:040294005a05000007
:020000040000fa
:040298005a05000003
:020000040000fa
:04029c005a050000ff
:020000040000fa
:0402a0005a050000fb
:020000040000fa
:0402a4005a050000f7
:020000040000fa
:0402a8005a050000f3
:020000040000fa
:0402ac005a050000ef
:020000040000fa
:0402b0005a050000eb
:020000040000fa
:0402b4005a050000e7
:020000040000fa
:0402b8005a050000e3
:020000040000fa
:0402bc005a050000df
:020000040000fa
:0402c0005a050000db
:020000040000fa
:0402c4005a050000d7
:020000040000fa
:0402c8005a050000d3
:020000040000fa
:0402cc005a050000cf
:020000040000fa
:0402d0005a050000cb
:020000040000fa
:0402d4005a050000c7
:020000040000fa
:0402d8005a050000c3
:020000040000fa
:0402dc005a050000bf
:020000040000fa
:0402e0005a050000bb
:020000040000fa
:0402e4005a050000b7
:020000040000fa
:0402e8005a050000b3
:020000040000fa
:0402ec005a050000af
:020000040000fa
:0402f0005a050000ab
:020000040000fa
:0402f4005a050000a7
:020000040000fa
:0402f8005a050000a3
:020000040000fa
:0402fc005a0500009f
:020000040000fa
:040300005a0500009a
:020000040000fa
:040304005a05000096
:020000040000fa
:040308005a05000092
:020000040000fa
:04030c005a0500008e
:020000040000fa
:040310005a0500008a
:020000040000fa
:040314005a05000086
:020000040000fa
:040318005a05000082
:020000040000fa
:04031c005a0500007e
:020000040000fa
:040320005a0500007a
:020000040000fa
:040324005a05000076
:020000040000fa
:040328005a05000072
:020000040000fa
:04032c005a0500006e
:020000040000fa
:040330005a0500006a
:020000040000fa
:040334005a05000066
:020000040000fa
:100400002f0721000eff24000e01880000000000cd
:10041000000020000000e000020032000001200087
:100420002002880014000700a40107000000e0007b
:1004300003003a00e08320000100200002003700a2
:100440000000200001002000810f70000100320038
:100450000f000700000020000000e0000200320052
:1004600000000200000000003a0902000000000045
:100470000040da000000fe00200020000000e00044
:1004800002003200100020009001880000000600e9
:10049000a1028800800478000000eb001f003700f4
:1004a000e284440054a0b4009905ba00e2844400f8
:1004b00054a0b4009906ba00e284440054a0b400e9
:1004c0000006eb00476fde00fd07b200ae018800ba
:1004d000636ce10003003a000ad801000000eb0061
:1004e0000e003700606ce10008003a00004deb00a0
:1004f0000a05e800020039003420ec000af0a000f0
:100500008b05e900f9ff3e00040037006168e10057
:10051000010032000086eb000b00070019c7ba008b
:100520001905ba000e04e00003003a000a00e000da
:10053000dbff3a0000000600fe07b200ae028800b2
:100540008a047800f5ff37000cd0a300e20f4d00bd
:100550001c00390089027800354dba000a05e80010
:10056000020039003420ec000af0a0008b05e900fd
:100570000f003200254dba000a05e80002003900dc
:100580003420ec000af0a0008b05e90008003200de
:100590000c00e0000600320015cdba000a05e800a4
:1005a000020039003420ec000af0a0008b05e900bd
:1005b0008984e80054a0b4000b00e000e2ff3a0098
:1005c000000006009902ba00055d78008b05e9007d
:1005d000f7ff3200c82ade00055d78008b05e900d0
:1005e000f3ff32000c00e000f1ff320019ddba0029
:1005f000eeff37003600f800809fbe00829fbe00ed
:10060000849fbe00869fbe000000fa00c028a9009b
:100610000000eb000b0307000080fa004f03be0050
:100620004f02be004f01be004f00be003600f90071
:10063000004006003600f800809fbe00829fbe008a
:10064000849fbe00869fbe000000fa0002030700e0
:10065000c048a90010002000fa0207000080fa003c
:100660004f03be004f02be004f01be004f00be0050
:100670003600f900004006003600f800809fbe00fa
:10068000829fbe00849fbe00869fbe000000fa00cd
:10069000c068a90020002000ea0207000080fa00dc
:1006a0004f03be004f02be004f01be004f00be0010
:1006b0003600f900004006003600f800809fbe00ba
:1006c000829fbe00849fbe00869fbe000000fa008d
:1006d000c088a90030002000da0207000080fa007c
:1006e0004f03be004f02be004f01be004f00be00d0
:1006f0003600f900004006003600f800809fbe007a
:10070000829fbe00849fbe00869fbe000000fa004c
:10071000c608a90070002000ca0207000080fa0085
:100720004f03be004f02be004f01be004f00be008f
:100730003600f900004006003600f800809fbe0039
:10074000829fbe00849fbe00869fbe000000fa000c
:100750002146800000102000008060000000e000c2
:1007600003003200c508a900c0002000b502070040
:100770002146800000002800008060000000e000aa
:1007800003003200c5e8a90080002000ad02070088
:100790002146800000022000008060000000e00090
:1007a00003003200c4a8a90090002000a5020700a1
:1007b00020468000700060000000e000030032006e
:1007c000c488a900a00020009e02070020468000e7
:1007d000610060000000e00003003200c408a900ce
:1007e000b000200097020700ffff37003600f80036
:1007f000809fbe00829fbe00849fbe00869fbe0079
:100800000200fa0000808000e20f500088003200f1
:10081000e20f500003003900e30f50007700320070
:1008200095003700e110800000402000008060004b
:100830000000e00005003a000111800000022000e5
:10084000008060000000e0000a003200e11080003b
:1008500000082000008060000000e000240032005a
:100860000111800000202000008060000000e000f6
:100870001f00320000118000640060000000e000f2
:100880000c003a0010002000df00070010808000fc
:100890000000e0000400320010808000a111800000
:1008a0008140780001487800100020000080880016
:1008b00036003700a0118000004f78000000eb00e8
:1008c000d1000700208080000000e0000500320019
:1008d00020808000104078000080fb00801188009c
:1008e0001d82a8002000200000808800270037001b
:1008f000e110800000402000008060000000e00067
:1009000022003200011180000002200000806000ff
:100910000000e0001d003a0000118000640060004b
:100920000000e00004003a000a70ef0030002000f0
:1009300000808800130037000ad0bf000004e000e8
:100940000d0032000000eb00af00070020808000a7
:100950000000e00005003200208080001040780098
:100960000080fb00801188001d82a800200020006c
:1009700000808800030037000a70ef00300020007c
:1009800000808800a0118000004f78000080800067
:10099000e10f500039003a000111800000022000f0
:1009a000008060000000e00036003200011180008d
:1009b00000042000008060000000e0000b003a000e
:1009c000108080000000e0000400320010808000f1
:1009d000a1118000814078000148780020002000ab
:1009e000890007000ef0b70029003700a011800031
:1009f000004f780020c2a9002500370030002000f9
:100a0000810007000ef0b70010c0b3000af0b70075
:100a10000ed0bf000004e00002003200a0118000f0
:100a2000004f780010002000008088001800370078
:100a30000111800000002800008060000000e0003c
:100a40000b003a000000eb006f00070020808000e0
:100a50000000e0000d00320020808000104078008f
:100a60000080fb00801188001d82a800080037006c
:100a70000030ef0006003700ffff370000000000e5
:100a800003003700000000000100370000000000f4
:100a90001d82a80004a8a9000080fa004f03be0030
:100aa0004f02be004f01be004f00be003600f900ed
:100ab000004006000040da000000fe0000000500d3
:020000040000fa
:100ac0000000fa0000442800e01088002022ef0017
:100ad000a0072000250007000000eb001d00070014
:100ae0000030ef000000eb00060007000000eb0004
:100af0000a00070004a8a90024a8a8000080fa00a2
:100b0000000006000200fa00000f78009e00780046
:100b1000218088000080fa00000006000200fa0030
:100b2000000f78009e007800118088000080fa0095
:100b3000000006000000fa00208080000080fa001b
:100b4000000006000000fa00108080000080fa001b
:100b5000000006000200fa00000f78009e007800f6
:100b6000411188000080fa00000006000200fa002f
:100b7000000f7800f00720009e007800808f500062
:100b8000020036001d42a800010037001d42a900e6
:100b90000030ef009e007800211188000080fa00ec
:100ba000000006000000fa00208080000000e00045
:100bb0000600320020808000104078000080fb009a
:100bc000801188001d82a80001003700000000008d
:100bd0000080fa00000006000000fa00108080008b
:100be0000000e0000500320010808000a1118000ac
:100bf00081407800014878000100370000000000c3
:100c00000080fa00000006000200fa00000f7800e1
:100c10001e007800e10f500012003200e10f50007a
:100c200003003900e20f5000140032004500370085
:100c30003080800021012100810040000000e80098
:100c40003080880001007800aeff0700318080000e
:100c5000f0032000808f5000350036000630ef0092
:100c6000380037000830ef0010c0b3000df0b700b7
:100c7000c0002100a9ff0700320037000dd0bf00df
:100c80000004e0001c003200408080000000e00012
:100c900008003a000cd0bf000080fb004800dd00d7
:100ca00030808800408080000000e800408088009c
:100cb0000a00370040808000e10f500007003a0032
:100cc0000cd0bf008080fb003080800001007000ed
:100cd000308088000830ef000d70ef003180800018
:100ce000f0032000808f5000130036000004200025
:100cf000308088001300370030808000c20021005f
:100d00001241780021012100808040008248780053
:100d10000000e8003080880031808000f00320006f
:100d2000808f5000060036000630ef0005003700c7
:100d30000000000003003700000000000100370041
:100d40000000000010c0b3000080fa0000000600a0
:100d50000000fa00007c80000080fa00000006001d
:100d60000200fa00faff0700000f78001e0078006a
:100d7000240007000004e000020032000000280008
:100d8000710007001e0078002a0007000004e00040
:100d900002003200000024006b0007001e007800f3
:100da000320007000004e0000200320000202000b2
:100db000650007001e0078003a0007000004e0000c
:100dc00002003200000820005f0007001e007800cb
:100dd000420007000004e00002003200000420008e
:100de000590007001e0078004a0007000004e000d8
:100df0000200320000012000530007000080fa00ca
:100e0000000006000400fa00100798000040eb0004
:100e1000004f78001e0090000000e00002003d003e
:100e200010c0b300004f78001e4078000080fa0028
:100e3000000006000400fa00100798000040eb00d4
:100e4000004f78009e0090000000240000806000a9
:100e50000000e0000200320010c0b300004f780034
:100e60001e4078000080fa00000006000400fa002e
:100e7000100798000040eb00004f78009e009000a3
:100e800000202000008060000000e000020032002e
:100e900010c0b300004f78001e4078000080fa00b8
:100ea000000006000400fa00100798000040eb0064
:100eb000004f78009e009000000820000080600035
:100ec0000000e0000200320010c0b300004f7800c4
:100ed0001e4078000080fa00000006000400fa00be
:100ee000100798000040eb00004f78009e00900033
:100ef00000042000008060000000e00002003200da
:100f000010c0b300004f78001e4078000080fa0047
:100f1000000006000400fa00100798000040eb00f3
:100f2000004f78001e009000700060000000e0009c
:100f30000200320010c0b300004f78001e4078005d
:100f40000080fa00000006000200fa00000f78009e
:100f50009e80ea00007c800000806000007c8800a9
:100f60000080fa00000006000000fa00802fef0069
:100f70000080fa00000006000000fa0010002300c4
:100f8000307c8800800c2000407c88008c2fef0093
:100f900010042000507c880010102800707c88000d
:100fa000d0072000807c880010022000907c880000
:100fb000b82fef00ba2fef00be2fef00002def008b
:100fc000a02fef00a42fef00a62fef00a82fef0017
:100fd000aa2fef00ae2fef00b02fef00b22fef00df
:100fe0001200200080072000a109200053f82000f3
:100ff00080497800814978008249780012002000f9
:10100000600420007105200043f82000804978002a
:10101000814978008249780000000000207c80002f
:10102000610060000000e000fcff3a0000000000ea
:10103000217c800000022000008060000000e000b1
:10104000fbff32000080fa00000006000000fa00fa
:10105000707c8000ee800a00000000000080fb0031
:1010600000f0a7000000ea000000ea004f00de00e8
:0c107000004078000080fa00000006003c
:020000040000fa
:10107c005210000020000000800000001010000042
:10108c000200000082000000ffff000012100000b0
:10109c004000000082000000ffffff00ffffff0088
:1010ac00ffffff00ffffff00ffffff00ffffff0040
:1010bc00ffffff00ffffff00ffffff00ffffff0030
:1010cc00ffffff00ffffff00ffffff00ffffff0020
:1010dc00ffffff00ffffff00ffffff00ffffff0010
:1010ec00ffffff00ffffff00ffffff00ff000000fe
:1010fc00001000000c000000800000000c1000002c
:10110c000400000082000000aa01010000000000a1
:04111c0000000000cf
:020000040000fa
:101120000000fa00062eef00222eef003e2eef0008
:101130005a2eef00f001200010708800d0ff2f0021
:10114000f07088000080eb00d07188000080eb0018
:10115000b07288000c2eef00282eef00442eef0016
:10116000602eef000a2eef00262eef00422eef0039
:101170005e2eef00082eef00242eef00402eef0031
:101180005c2eef00f0012000007088005038200035
:10119000e0708800f00c2000c071880000c02200c0
:1011a000a07288000080fa00000006000200fa0029
:1011b000000f780021028000200f200000806000d6
:1011c0001e007000200288000080fa000000060067
:1011d0000000fa00c3e8a8000000000000000000c2
:1011e0000080fa00000006000000fa00ccff0700b3
:1011f0000700070060ff070031fe0700f4ff07004b
:1012000000022000e9ff07000080fa00000006004d
:101210000000fa0091428000f08f2f0000806000f3
:101220000080a0009042880091428000f0f82f00da
:10123000008060000040a000904288000080fa001a
:10124000000006000200fa00000f78009e007800ff
:1012500081808800ffff37000000fa002005210090
:1012600080077800a0062100000188000080fa00b5
:10127000000006000000fa00dbff0700ffff370058
:020000040000fa
:020000040002f8
:04be0000ffff000040
:020000040000fa
:020000040002f8
:04be2000ffffff0021
:020000040000fa
:020000040002f8
:04be300078ffff0098
:020000040000fa
:020000040002f8
:04be38007fffff0089
:020000040000fa
:020000040002f8
:04be40006003ff009c
:020000040000fa
:020000040002f8
:04be4800ffffff00f9
:020000040000fa
:020000040002f8
:04be5000deffff0012
:020000040000fa
:020000040002f8
:04be58000000ff00e7
:020000040000fa
:020000040002f8
:04be60000000ff00df
:020000040000fa
:020000040002f8
:04be68000000ff00d7
:020000040000fa
:020000040002f8
:04be70000000ff00cf
:020000040000fa
:020000040002f8
:04be7800ffffff00c9
:020000040000fa
:020000040002f8
:04be8000fffcff00c4
:020000040000fa
:020000040002f8
:04be8800ffffff00b9
:020000040000fa
:020000040002f8
:04bff800ffffff0048
:020000040000fa
:020000040100f9
:04300000ffffff00cf
:00000001FF
